{
  "contractName": "CertificateRegistry",
  "abi": [
    {
      "inputs": [],
      "stateMutability": "nonpayable",
      "type": "constructor"
    },
    {
      "anonymous": false,
      "inputs": [
        {
          "indexed": true,
          "internalType": "address",
          "name": "student",
          "type": "address"
        },
        {
          "indexed": false,
          "internalType": "string",
          "name": "certType",
          "type": "string"
        },
        {
          "indexed": false,
          "internalType": "string",
          "name": "fileHash",
          "type": "string"
        }
      ],
      "name": "CertificateIssued",
      "type": "event"
    },
    {
      "inputs": [],
      "name": "admin",
      "outputs": [
        {
          "internalType": "address",
          "name": "",
          "type": "address"
        }
      ],
      "stateMutability": "view",
      "type": "function",
      "constant": true
    },
    {
      "inputs": [
        {
          "internalType": "address",
          "name": "",
          "type": "address"
        },
        {
          "internalType": "string",
          "name": "",
          "type": "string"
        }
      ],
      "name": "certificates",
      "outputs": [
        {
          "internalType": "string",
          "name": "fileHash",
          "type": "string"
        },
        {
          "internalType": "uint256",
          "name": "issuedAt",
          "type": "uint256"
        }
      ],
      "stateMutability": "view",
      "type": "function",
      "constant": true
    },
    {
      "inputs": [
        {
          "internalType": "address",
          "name": "student",
          "type": "address"
        },
        {
          "internalType": "string",
          "name": "certType",
          "type": "string"
        },
        {
          "internalType": "string",
          "name": "fileHash",
          "type": "string"
        }
      ],
      "name": "issueCertificate",
      "outputs": [],
      "stateMutability": "nonpayable",
      "type": "function"
    },
    {
      "inputs": [
        {
          "internalType": "address",
          "name": "student",
          "type": "address"
        },
        {
          "internalType": "string",
          "name": "certType",
          "type": "string"
        }
      ],
      "name": "getCertificate",
      "outputs": [
        {
          "internalType": "string",
          "name": "fileHash",
          "type": "string"
        },
        {
          "internalType": "uint256",
          "name": "issuedAt",
          "type": "uint256"
        }
      ],
      "stateMutability": "view",
      "type": "function",
      "constant": true
    }
  ],
  "bytecode": "0x608060405234801561000f575f80fd5b50335f806101000a81548173ffffffffffffffffffffffffffffffffffffffff021916908373ffffffffffffffffffffffffffffffffffffffff160217905550610d7b8061005c5f395ff3fe608060405234801561000f575f80fd5b506004361061004a575f3560e01c806326bf0f031461004e57806363e7e85b1461007f578063e98ac4d8146100b0578063f851a440146100cc575b5f80fd5b610068600480360381019061006391906106f5565b6100ea565b6040516100769291906107e1565b60405180910390f35b610099600480360381019061009491906106f5565b610248565b6040516100a79291906107e1565b60405180910390f35b6100ca60048036038101906100c5919061080f565b610311565b005b6100d461052b565b6040516100e191906108a6565b60405180910390f35b60605f8060015f8673ffffffffffffffffffffffffffffffffffffffff1673ffffffffffffffffffffffffffffffffffffffff1681526020019081526020015f208460405161013991906108f9565b90815260200160405180910390206040518060400160405290815f820180546101619061093c565b80601f016020809104026020016040519081016040528092919081815260200182805461018d9061093c565b80156101d85780601f106101af576101008083540402835291602001916101d8565b820191905f5260205f20905b8154815290600101906020018083116101bb57829003601f168201915b5050505050815260200160018201548152505090505f815f01515103610233576040517f08c379a000000000000000000000000000000000000000000000000000000000815260040161022a906109b6565b60405180910390fd5b805f0151816020015192509250509250929050565b6001602052815f5260405f20818051602081018201805184825260208301602085012081835280955050505050505f9150915050805f01805461028a9061093c565b80601f01602080910402602001604051908101604052809291908181526020018280546102b69061093c565b80156103015780601f106102d857610100808354040283529160200191610301565b820191905f5260205f20905b8154815290600101906020018083116102e457829003601f168201915b5050505050908060010154905082565b5f8054906101000a900473ffffffffffffffffffffffffffffffffffffffff1673ffffffffffffffffffffffffffffffffffffffff163373ffffffffffffffffffffffffffffffffffffffff161461039e576040517f08c379a000000000000000000000000000000000000000000000000000000000815260040161039590610a1e565b60405180910390fd5b5f60015f8573ffffffffffffffffffffffffffffffffffffffff1673ffffffffffffffffffffffffffffffffffffffff1681526020019081526020015f20836040516103ea91906108f9565b90815260200160405180910390205f0180546104059061093c565b905014610447576040517f08c379a000000000000000000000000000000000000000000000000000000000815260040161043e90610a86565b60405180910390fd5b60405180604001604052808281526020014281525060015f8573ffffffffffffffffffffffffffffffffffffffff1673ffffffffffffffffffffffffffffffffffffffff1681526020019081526020015f20836040516104a791906108f9565b90815260200160405180910390205f820151815f0190816104c89190610c41565b50602082015181600101559050508273ffffffffffffffffffffffffffffffffffffffff167f47cc4ced4606cf64a6565f021a305c4cb93bfd53abc74f8321ff3552f6ab754a838360405161051e929190610d10565b60405180910390a2505050565b5f8054906101000a900473ffffffffffffffffffffffffffffffffffffffff1681565b5f604051905090565b5f80fd5b5f80fd5b5f73ffffffffffffffffffffffffffffffffffffffff82169050919050565b5f6105888261055f565b9050919050565b6105988161057e565b81146105a2575f80fd5b50565b5f813590506105b38161058f565b92915050565b5f80fd5b5f80fd5b5f601f19601f8301169050919050565b7f4e487b71000000000000000000000000000000000000000000000000000000005f52604160045260245ffd5b610607826105c1565b810181811067ffffffffffffffff82111715610626576106256105d1565b5b80604052505050565b5f61063861054e565b905061064482826105fe565b919050565b5f67ffffffffffffffff821115610663576106626105d1565b5b61066c826105c1565b9050602081019050919050565b828183375f83830152505050565b5f61069961069484610649565b61062f565b9050828152602081018484840111156106b5576106b46105bd565b5b6106c0848285610679565b509392505050565b5f82601f8301126106dc576106db6105b9565b5b81356106ec848260208601610687565b91505092915050565b5f806040838503121561070b5761070a610557565b5b5f610718858286016105a5565b925050602083013567ffffffffffffffff8111156107395761073861055b565b5b610745858286016106c8565b9150509250929050565b5f81519050919050565b5f82825260208201905092915050565b5f5b8381101561078657808201518184015260208101905061076b565b5f8484015250505050565b5f61079b8261074f565b6107a58185610759565b93506107b5818560208601610769565b6107be816105c1565b840191505092915050565b5f819050919050565b6107db816107c9565b82525050565b5f6040820190508181035f8301526107f98185610791565b905061080860208301846107d2565b9392505050565b5f805f6060848603121561082657610825610557565b5b5f610833868287016105a5565b935050602084013567ffffffffffffffff8111156108545761085361055b565b5b610860868287016106c8565b925050604084013567ffffffffffffffff8111156108815761088061055b565b5b61088d868287016106c8565b9150509250925092565b6108a08161057e565b82525050565b5f6020820190506108b95f830184610897565b92915050565b5f81905092915050565b5f6108d38261074f565b6108dd81856108bf565b93506108ed818560208601610769565b80840191505092915050565b5f61090482846108c9565b915081905092915050565b7f4e487b71000000000000000000000000000000000000000000000000000000005f52602260045260245ffd5b5f600282049050600182168061095357607f821691505b6020821081036109665761096561090f565b5b50919050565b7f4365727469666963617465206e6f7420666f756e6400000000000000000000005f82015250565b5f6109a0601583610759565b91506109ab8261096c565b602082019050919050565b5f6020820190508181035f8301526109cd81610994565b9050919050565b7f4f6e6c792061646d696e2063616e2069737375650000000000000000000000005f82015250565b5f610a08601483610759565b9150610a13826109d4565b602082019050919050565b5f6020820190508181035f830152610a35816109fc565b9050919050565b7f436572746966696361746520616c7265616479206578697374730000000000005f82015250565b5f610a70601a83610759565b9150610a7b82610a3c565b602082019050919050565b5f6020820190508181035f830152610a9d81610a64565b9050919050565b5f819050815f5260205f209050919050565b5f6020601f8301049050919050565b5f82821b905092915050565b5f60088302610b007fffffffffffffffffffffffffffffffffffffffffffffffffffffffffffffffff82610ac5565b610b0a8683610ac5565b95508019841693508086168417925050509392505050565b5f819050919050565b5f610b45610b40610b3b846107c9565b610b22565b6107c9565b9050919050565b5f819050919050565b610b5e83610b2b565b610b72610b6a82610b4c565b848454610ad1565b825550505050565b5f90565b610b86610b7a565b610b91818484610b55565b505050565b5b81811015610bb457610ba95f82610b7e565b600181019050610b97565b5050565b601f821115610bf957610bca81610aa4565b610bd384610ab6565b81016020851015610be2578190505b610bf6610bee85610ab6565b830182610b96565b50505b505050565b5f82821c905092915050565b5f610c195f1984600802610bfe565b1980831691505092915050565b5f610c318383610c0a565b9150826002028217905092915050565b610c4a8261074f565b67ffffffffffffffff811115610c6357610c626105d1565b5b610c6d825461093c565b610c78828285610bb8565b5f60209050601f831160018114610ca9575f8415610c97578287015190505b610ca18582610c26565b865550610d08565b601f198416610cb786610aa4565b5f5b82811015610cde57848901518255600182019150602085019450602081019050610cb9565b86831015610cfb5784890151610cf7601f891682610c0a565b8355505b6001600288020188555050505b505050505050565b5f6040820190508181035f830152610d288185610791565b90508181036020830152610d3c8184610791565b9050939250505056fea26469706673582212207cbf971b86e5488811bd1607693d0590c448b8067b6d2fb3a1836dc06a143b4a64736f6c63430008140033",
  "immutableReferences": {},
  "source": "// SPDX-License-Identifier: MIT\r\npragma solidity ^0.8.20;\r\n\r\ncontract CertificateRegistry {\r\n    address public admin;\r\n\r\n    struct Certificate {\r\n        string fileHash;       // SHA-256 hash of the certificate file\r\n        uint256 issuedAt;\r\n    }\r\n\r\n    mapping(address => mapping(string => Certificate)) public certificates;\r\n\r\n    event CertificateIssued(address indexed student, string certType, string fileHash);\r\n\r\n    modifier onlyAdmin() {\r\n        require(msg.sender == admin, \"Only admin can issue\");\r\n        _;\r\n    }\r\n\r\n    constructor() {\r\n        admin = msg.sender;\r\n    }\r\n\r\n    function issueCertificate(address student, string memory certType, string memory fileHash) public onlyAdmin {\r\n        require(bytes(certificates[student][certType].fileHash).length == 0, \"Certificate already exists\");\r\n\r\n        certificates[student][certType] = Certificate({\r\n            fileHash: fileHash,\r\n            issuedAt: block.timestamp\r\n        });\r\n\r\n        emit CertificateIssued(student, certType, fileHash);\r\n    }\r\n\r\n    function getCertificate(address student, string memory certType) public view returns (\r\n        string memory fileHash,\r\n        uint256 issuedAt\r\n    ) {\r\n        Certificate memory cert = certificates[student][certType];\r\n        require(bytes(cert.fileHash).length != 0, \"Certificate not found\");\r\n\r\n        return (cert.fileHash, cert.issuedAt);\r\n    }\r\n}\r\n",
  "sourcePath": "C:\\Users\\Jagapathi Vallapuri\\Desktop\\Projects\\BlockchainBasedCertificateVerification\\contracts\\CertificateRegistry.sol",
  "compiler": {
    "name": "solc",
    "version": "0.8.20+commit.a1b79de6.Emscripten.clang"
  },
  "schemaVersion": "3.4.16",
  "updatedAt": "2025-08-09T15:09:16.526Z",
  "networkType": "ethereum",
  "devdoc": {
    "kind": "dev",
    "methods": {},
    "version": 1
  },
  "userdoc": {
    "kind": "user",
    "methods": {},
    "version": 1
  }
}